{
  "_format": "hh-sol-artifact-1",
  "contractName": "Domains",
  "sourceName": "contracts/Lock.sol",
  "abi": [
    {
      "inputs": [
        {
          "internalType": "string",
          "name": "_tld",
          "type": "string"
        }
      ],
      "stateMutability": "payable",
      "type": "constructor"
    },
    {
      "inputs": [],
      "name": "AlreadyRegistered",
      "type": "error"
    },
    {
      "inputs": [
        {
          "internalType": "string",
          "name": "name",
          "type": "string"
        }
      ],
      "name": "InvalidName",
      "type": "error"
    },
    {
      "inputs": [],
      "name": "Unauthorized",
      "type": "error"
    },
    {
      "anonymous": false,
      "inputs": [
        {
          "indexed": true,
          "internalType": "address",
          "name": "owner",
          "type": "address"
        },
        {
          "indexed": true,
          "internalType": "address",
          "name": "approved",
          "type": "address"
        },
        {
          "indexed": true,
          "internalType": "uint256",
          "name": "tokenId",
          "type": "uint256"
        }
      ],
      "name": "Approval",
      "type": "event"
    },
    {
      "anonymous": false,
      "inputs": [
        {
          "indexed": true,
          "internalType": "address",
          "name": "owner",
          "type": "address"
        },
        {
          "indexed": true,
          "internalType": "address",
          "name": "operator",
          "type": "address"
        },
        {
          "indexed": false,
          "internalType": "bool",
          "name": "approved",
          "type": "bool"
        }
      ],
      "name": "ApprovalForAll",
      "type": "event"
    },
    {
      "anonymous": false,
      "inputs": [
        {
          "indexed": true,
          "internalType": "address",
          "name": "from",
          "type": "address"
        },
        {
          "indexed": true,
          "internalType": "address",
          "name": "to",
          "type": "address"
        },
        {
          "indexed": true,
          "internalType": "uint256",
          "name": "tokenId",
          "type": "uint256"
        }
      ],
      "name": "Transfer",
      "type": "event"
    },
    {
      "inputs": [],
      "name": "_tokenIds",
      "outputs": [
        {
          "internalType": "uint256",
          "name": "_value",
          "type": "uint256"
        }
      ],
      "stateMutability": "view",
      "type": "function"
    },
    {
      "inputs": [
        {
          "internalType": "address",
          "name": "to",
          "type": "address"
        },
        {
          "internalType": "uint256",
          "name": "tokenId",
          "type": "uint256"
        }
      ],
      "name": "approve",
      "outputs": [],
      "stateMutability": "nonpayable",
      "type": "function"
    },
    {
      "inputs": [
        {
          "internalType": "address",
          "name": "owner",
          "type": "address"
        }
      ],
      "name": "balanceOf",
      "outputs": [
        {
          "internalType": "uint256",
          "name": "",
          "type": "uint256"
        }
      ],
      "stateMutability": "view",
      "type": "function"
    },
    {
      "inputs": [
        {
          "internalType": "string",
          "name": "",
          "type": "string"
        }
      ],
      "name": "domains",
      "outputs": [
        {
          "internalType": "address",
          "name": "",
          "type": "address"
        }
      ],
      "stateMutability": "view",
      "type": "function"
    },
    {
      "inputs": [
        {
          "internalType": "string",
          "name": "name",
          "type": "string"
        }
      ],
      "name": "getAddress",
      "outputs": [
        {
          "internalType": "address",
          "name": "",
          "type": "address"
        }
      ],
      "stateMutability": "view",
      "type": "function"
    },
    {
      "inputs": [],
      "name": "getAllNames",
      "outputs": [
        {
          "internalType": "string[]",
          "name": "",
          "type": "string[]"
        }
      ],
      "stateMutability": "view",
      "type": "function"
    },
    {
      "inputs": [
        {
          "internalType": "uint256",
          "name": "tokenId",
          "type": "uint256"
        }
      ],
      "name": "getApproved",
      "outputs": [
        {
          "internalType": "address",
          "name": "",
          "type": "address"
        }
      ],
      "stateMutability": "view",
      "type": "function"
    },
    {
      "inputs": [
        {
          "internalType": "string",
          "name": "name",
          "type": "string"
        }
      ],
      "name": "getRecord",
      "outputs": [
        {
          "internalType": "string",
          "name": "",
          "type": "string"
        }
      ],
      "stateMutability": "view",
      "type": "function"
    },
    {
      "inputs": [
        {
          "internalType": "address",
          "name": "owner",
          "type": "address"
        },
        {
          "internalType": "address",
          "name": "operator",
          "type": "address"
        }
      ],
      "name": "isApprovedForAll",
      "outputs": [
        {
          "internalType": "bool",
          "name": "",
          "type": "bool"
        }
      ],
      "stateMutability": "view",
      "type": "function"
    },
    {
      "inputs": [],
      "name": "isOwner",
      "outputs": [
        {
          "internalType": "bool",
          "name": "",
          "type": "bool"
        }
      ],
      "stateMutability": "view",
      "type": "function"
    },
    {
      "inputs": [],
      "name": "name",
      "outputs": [
        {
          "internalType": "string",
          "name": "",
          "type": "string"
        }
      ],
      "stateMutability": "view",
      "type": "function"
    },
    {
      "inputs": [
        {
          "internalType": "uint256",
          "name": "",
          "type": "uint256"
        }
      ],
      "name": "names",
      "outputs": [
        {
          "internalType": "string",
          "name": "",
          "type": "string"
        }
      ],
      "stateMutability": "view",
      "type": "function"
    },
    {
      "inputs": [],
      "name": "owner",
      "outputs": [
        {
          "internalType": "address payable",
          "name": "",
          "type": "address"
        }
      ],
      "stateMutability": "view",
      "type": "function"
    },
    {
      "inputs": [
        {
          "internalType": "uint256",
          "name": "tokenId",
          "type": "uint256"
        }
      ],
      "name": "ownerOf",
      "outputs": [
        {
          "internalType": "address",
          "name": "",
          "type": "address"
        }
      ],
      "stateMutability": "view",
      "type": "function"
    },
    {
      "inputs": [
        {
          "internalType": "string",
          "name": "name",
          "type": "string"
        }
      ],
      "name": "price",
      "outputs": [
        {
          "internalType": "uint256",
          "name": "",
          "type": "uint256"
        }
      ],
      "stateMutability": "pure",
      "type": "function"
    },
    {
      "inputs": [
        {
          "internalType": "string",
          "name": "",
          "type": "string"
        }
      ],
      "name": "records",
      "outputs": [
        {
          "internalType": "string",
          "name": "",
          "type": "string"
        }
      ],
      "stateMutability": "view",
      "type": "function"
    },
    {
      "inputs": [
        {
          "internalType": "string",
          "name": "name",
          "type": "string"
        }
      ],
      "name": "register",
      "outputs": [],
      "stateMutability": "payable",
      "type": "function"
    },
    {
      "inputs": [
        {
          "internalType": "address",
          "name": "from",
          "type": "address"
        },
        {
          "internalType": "address",
          "name": "to",
          "type": "address"
        },
        {
          "internalType": "uint256",
          "name": "tokenId",
          "type": "uint256"
        }
      ],
      "name": "safeTransferFrom",
      "outputs": [],
      "stateMutability": "nonpayable",
      "type": "function"
    },
    {
      "inputs": [
        {
          "internalType": "address",
          "name": "from",
          "type": "address"
        },
        {
          "internalType": "address",
          "name": "to",
          "type": "address"
        },
        {
          "internalType": "uint256",
          "name": "tokenId",
          "type": "uint256"
        },
        {
          "internalType": "bytes",
          "name": "data",
          "type": "bytes"
        }
      ],
      "name": "safeTransferFrom",
      "outputs": [],
      "stateMutability": "nonpayable",
      "type": "function"
    },
    {
      "inputs": [
        {
          "internalType": "address",
          "name": "operator",
          "type": "address"
        },
        {
          "internalType": "bool",
          "name": "approved",
          "type": "bool"
        }
      ],
      "name": "setApprovalForAll",
      "outputs": [],
      "stateMutability": "nonpayable",
      "type": "function"
    },
    {
      "inputs": [
        {
          "internalType": "string",
          "name": "name",
          "type": "string"
        },
        {
          "internalType": "string",
          "name": "record",
          "type": "string"
        }
      ],
      "name": "setRecord",
      "outputs": [],
      "stateMutability": "nonpayable",
      "type": "function"
    },
    {
      "inputs": [
        {
          "internalType": "bytes4",
          "name": "interfaceId",
          "type": "bytes4"
        }
      ],
      "name": "supportsInterface",
      "outputs": [
        {
          "internalType": "bool",
          "name": "",
          "type": "bool"
        }
      ],
      "stateMutability": "view",
      "type": "function"
    },
    {
      "inputs": [],
      "name": "symbol",
      "outputs": [
        {
          "internalType": "string",
          "name": "",
          "type": "string"
        }
      ],
      "stateMutability": "view",
      "type": "function"
    },
    {
      "inputs": [],
      "name": "tld",
      "outputs": [
        {
          "internalType": "string",
          "name": "",
          "type": "string"
        }
      ],
      "stateMutability": "view",
      "type": "function"
    },
    {
      "inputs": [
        {
          "internalType": "uint256",
          "name": "tokenId",
          "type": "uint256"
        }
      ],
      "name": "tokenURI",
      "outputs": [
        {
          "internalType": "string",
          "name": "",
          "type": "string"
        }
      ],
      "stateMutability": "view",
      "type": "function"
    },
    {
      "inputs": [
        {
          "internalType": "address",
          "name": "from",
          "type": "address"
        },
        {
          "internalType": "address",
          "name": "to",
          "type": "address"
        },
        {
          "internalType": "uint256",
          "name": "tokenId",
          "type": "uint256"
        }
      ],
      "name": "transferFrom",
      "outputs": [],
      "stateMutability": "nonpayable",
      "type": "function"
    },
    {
      "inputs": [
        {
          "internalType": "string",
          "name": "name",
          "type": "string"
        }
      ],
      "name": "valid",
      "outputs": [
        {
          "internalType": "bool",
          "name": "",
          "type": "bool"
        }
      ],
      "stateMutability": "pure",
      "type": "function"
    },
    {
      "inputs": [],
      "name": "withdraw",
      "outputs": [],
      "stateMutability": "nonpayable",
      "type": "function"
    }
  ],
  "bytecode": "0x6080604052604051806108a0016040528061086b8152602001620050b361086b9139600c908162000031919062000404565b506040518060400160405280600d81526020017f3c2f746578743e3c2f7376673e00000000000000000000000000000000000000815250600d908162000078919062000404565b506040516200591e3803806200591e83398181016040528101906200009e91906200064f565b6040518060400160405280601981526020017f4661746865722d4469617279204e616d652053657276696365000000000000008152506040518060400160405280600481526020017f46444e530000000000000000000000000000000000000000000000000000000081525081600090816200011b919062000404565b5080600190816200012d919062000404565b50505080600b908162000141919062000404565b5033600a60006101000a81548173ffffffffffffffffffffffffffffffffffffffff021916908373ffffffffffffffffffffffffffffffffffffffff16021790555050620006a0565b600081519050919050565b7f4e487b7100000000000000000000000000000000000000000000000000000000600052604160045260246000fd5b7f4e487b7100000000000000000000000000000000000000000000000000000000600052602260045260246000fd5b600060028204905060018216806200020c57607f821691505b602082108103620002225762000221620001c4565b5b50919050565b60008190508160005260206000209050919050565b60006020601f8301049050919050565b600082821b905092915050565b6000600883026200028c7fffffffffffffffffffffffffffffffffffffffffffffffffffffffffffffffff826200024d565b6200029886836200024d565b95508019841693508086168417925050509392505050565b6000819050919050565b6000819050919050565b6000620002e5620002df620002d984620002b0565b620002ba565b620002b0565b9050919050565b6000819050919050565b6200030183620002c4565b620003196200031082620002ec565b8484546200025a565b825550505050565b600090565b6200033062000321565b6200033d818484620002f6565b505050565b5b8181101562000365576200035960008262000326565b60018101905062000343565b5050565b601f821115620003b4576200037e8162000228565b62000389846200023d565b8101602085101562000399578190505b620003b1620003a8856200023d565b83018262000342565b50505b505050565b600082821c905092915050565b6000620003d960001984600802620003b9565b1980831691505092915050565b6000620003f48383620003c6565b9150826002028217905092915050565b6200040f826200018a565b67ffffffffffffffff8111156200042b576200042a62000195565b5b620004378254620001f3565b6200044482828562000369565b600060209050601f8311600181146200047c576000841562000467578287015190505b620004738582620003e6565b865550620004e3565b601f1984166200048c8662000228565b60005b82811015620004b6578489015182556001820191506020850194506020810190506200048f565b86831015620004d65784890151620004d2601f891682620003c6565b8355505b6001600288020188555050505b505050505050565b6000604051905090565b600080fd5b600080fd5b600080fd5b600080fd5b6000601f19601f8301169050919050565b620005258262000509565b810181811067ffffffffffffffff8211171562000547576200054662000195565b5b80604052505050565b60006200055c620004eb565b90506200056a82826200051a565b919050565b600067ffffffffffffffff8211156200058d576200058c62000195565b5b620005988262000509565b9050602081019050919050565b60005b83811015620005c5578082015181840152602081019050620005a8565b60008484015250505050565b6000620005e8620005e2846200056f565b62000550565b90508281526020810184848401111562000607576200060662000504565b5b62000614848285620005a5565b509392505050565b600082601f830112620006345762000633620004ff565b5b815162000646848260208601620005d1565b91505092915050565b600060208284031215620006685762000667620004f5565b5b600082015167ffffffffffffffff811115620006895762000688620004fa565b5b62000697848285016200061c565b91505092915050565b614a0380620006b06000396000f3fe6080604052600436106101b75760003560e01c80638da5cb5b116100ec578063bf40fac11161008a578063e985e9c511610064578063e985e9c51461066a578063f2c298be146106a7578063fb825e5f146106c3578063fe2c6198146106ee576101b7565b8063bf40fac1146105c7578063c1880a9814610604578063c87b56dd1461062d576101b7565b80639791c097116100c65780639791c0971461050d578063a22cb4651461054a578063aa46a40014610573578063b88d4fde1461059e576101b7565b80638da5cb5b1461048c5780638f32d59b146104b757806395d89b41146104e2576101b7565b80632d551432116101595780634622ab03116101335780634622ab0314610398578063541e771d146103d55780636352211e1461041257806370a082311461044f576101b7565b80632d5514321461032d5780633ccfd60b1461035857806342842e0e1461036f576101b7565b8063095ea7b311610195578063095ea7b31461026157806311dd88451461028a57806323b872dd146102c757806326449235146102f0576101b7565b806301ffc9a7146101bc57806306fdde03146101f9578063081812fc14610224575b600080fd5b3480156101c857600080fd5b506101e360048036038101906101de9190612e64565b61072b565b6040516101f09190612eac565b60405180910390f35b34801561020557600080fd5b5061020e61080d565b60405161021b9190612f57565b60405180910390f35b34801561023057600080fd5b5061024b60048036038101906102469190612faf565b61089f565b604051610258919061301d565b60405180910390f35b34801561026d57600080fd5b5061028860048036038101906102839190613064565b6108e5565b005b34801561029657600080fd5b506102b160048036038101906102ac9190613109565b6109fc565b6040516102be9190612f57565b60405180910390f35b3480156102d357600080fd5b506102ee60048036038101906102e99190613156565b610aaf565b005b3480156102fc57600080fd5b50610317600480360381019061031291906132d9565b610b0f565b604051610324919061301d565b60405180910390f35b34801561033957600080fd5b50610342610b58565b60405161034f9190612f57565b60405180910390f35b34801561036457600080fd5b5061036d610be6565b005b34801561037b57600080fd5b5061039660048036038101906103919190613156565b610cac565b005b3480156103a457600080fd5b506103bf60048036038101906103ba9190612faf565b610ccc565b6040516103cc9190612f57565b60405180910390f35b3480156103e157600080fd5b506103fc60048036038101906103f791906132d9565b610d6c565b6040516104099190612f57565b60405180910390f35b34801561041e57600080fd5b5061043960048036038101906104349190612faf565b610e22565b604051610446919061301d565b60405180910390f35b34801561045b57600080fd5b5061047660048036038101906104719190613322565b610ea8565b604051610483919061335e565b60405180910390f35b34801561049857600080fd5b506104a1610f5f565b6040516104ae919061339a565b60405180910390f35b3480156104c357600080fd5b506104cc610f85565b6040516104d99190612eac565b60405180910390f35b3480156104ee57600080fd5b506104f7610fdd565b6040516105049190612f57565b60405180910390f35b34801561051957600080fd5b50610534600480360381019061052f9190613109565b61106f565b6040516105419190612eac565b60405180910390f35b34801561055657600080fd5b50610571600480360381019061056c91906133e1565b611123565b005b34801561057f57600080fd5b50610588611139565b604051610595919061335e565b60405180910390f35b3480156105aa57600080fd5b506105c560048036038101906105c091906134c2565b611145565b005b3480156105d357600080fd5b506105ee60048036038101906105e99190613109565b6111a7565b6040516105fb919061301d565b60405180910390f35b34801561061057600080fd5b5061062b60048036038101906106269190613545565b6111f2565b005b34801561063957600080fd5b50610654600480360381019061064f9190612faf565b6112cd565b6040516106619190612f57565b60405180910390f35b34801561067657600080fd5b50610691600480360381019061068c91906135c6565b6113df565b60405161069e9190612eac565b60405180910390f35b6106c160048036038101906106bc9190613109565b611473565b005b3480156106cf57600080fd5b506106d861179a565b6040516106e59190613712565b60405180910390f35b3480156106fa57600080fd5b5061071560048036038101906107109190613109565b611978565b604051610722919061335e565b60405180910390f35b60007f80ac58cd000000000000000000000000000000000000000000000000000000007bffffffffffffffffffffffffffffffffffffffffffffffffffffffff1916827bffffffffffffffffffffffffffffffffffffffffffffffffffffffff191614806107f657507f5b5e139f000000000000000000000000000000000000000000000000000000007bffffffffffffffffffffffffffffffffffffffffffffffffffffffff1916827bffffffffffffffffffffffffffffffffffffffffffffffffffffffff1916145b80610806575061080582611a1c565b5b9050919050565b60606000805461081c90613763565b80601f016020809104026020016040519081016040528092919081815260200182805461084890613763565b80156108955780601f1061086a57610100808354040283529160200191610895565b820191906000526020600020905b81548152906001019060200180831161087857829003601f168201915b5050505050905090565b60006108aa82611a86565b6004600083815260200190815260200160002060009054906101000a900473ffffffffffffffffffffffffffffffffffffffff169050919050565b60006108f082610e22565b90508073ffffffffffffffffffffffffffffffffffffffff168373ffffffffffffffffffffffffffffffffffffffff1603610960576040517f08c379a000000000000000000000000000000000000000000000000000000000815260040161095790613806565b60405180910390fd5b8073ffffffffffffffffffffffffffffffffffffffff1661097f611ad1565b73ffffffffffffffffffffffffffffffffffffffff1614806109ae57506109ad816109a8611ad1565b6113df565b5b6109ed576040517f08c379a00000000000000000000000000000000000000000000000000000000081526004016109e490613898565b60405180910390fd5b6109f78383611ad9565b505050565b606060088383604051610a109291906138e8565b90815260200160405180910390208054610a2990613763565b80601f0160208091040260200160405190810160405280929190818152602001828054610a5590613763565b8015610aa25780601f10610a7757610100808354040283529160200191610aa2565b820191906000526020600020905b815481529060010190602001808311610a8557829003601f168201915b5050505050905092915050565b610ac0610aba611ad1565b82611b92565b610aff576040517f08c379a0000000000000000000000000000000000000000000000000000000008152600401610af690613973565b60405180910390fd5b610b0a838383611c27565b505050565b6007818051602081018201805184825260208301602085012081835280955050505050506000915054906101000a900473ffffffffffffffffffffffffffffffffffffffff1681565b600b8054610b6590613763565b80601f0160208091040260200160405190810160405280929190818152602001828054610b9190613763565b8015610bde5780601f10610bb357610100808354040283529160200191610bde565b820191906000526020600020905b815481529060010190602001808311610bc157829003601f168201915b505050505081565b610bee610f85565b610bf757600080fd5b600047905060003373ffffffffffffffffffffffffffffffffffffffff1682604051610c22906139c4565b60006040518083038185875af1925050503d8060008114610c5f576040519150601f19603f3d011682016040523d82523d6000602084013e610c64565b606091505b5050905080610ca8576040517f08c379a0000000000000000000000000000000000000000000000000000000008152600401610c9f90613a25565b60405180910390fd5b5050565b610cc783838360405180602001604052806000815250611145565b505050565b60096020528060005260406000206000915090508054610ceb90613763565b80601f0160208091040260200160405190810160405280929190818152602001828054610d1790613763565b8015610d645780601f10610d3957610100808354040283529160200191610d64565b820191906000526020600020905b815481529060010190602001808311610d4757829003601f168201915b505050505081565b6008818051602081018201805184825260208301602085012081835280955050505050506000915090508054610da190613763565b80601f0160208091040260200160405190810160405280929190818152602001828054610dcd90613763565b8015610e1a5780601f10610def57610100808354040283529160200191610e1a565b820191906000526020600020905b815481529060010190602001808311610dfd57829003601f168201915b505050505081565b600080610e2e83611f20565b9050600073ffffffffffffffffffffffffffffffffffffffff168173ffffffffffffffffffffffffffffffffffffffff1603610e9f576040517f08c379a0000000000000000000000000000000000000000000000000000000008152600401610e9690613a91565b60405180910390fd5b80915050919050565b60008073ffffffffffffffffffffffffffffffffffffffff168273ffffffffffffffffffffffffffffffffffffffff1603610f18576040517f08c379a0000000000000000000000000000000000000000000000000000000008152600401610f0f90613b23565b60405180910390fd5b600360008373ffffffffffffffffffffffffffffffffffffffff1673ffffffffffffffffffffffffffffffffffffffff168152602001908152602001600020549050919050565b600a60009054906101000a900473ffffffffffffffffffffffffffffffffffffffff1681565b6000600a60009054906101000a900473ffffffffffffffffffffffffffffffffffffffff1673ffffffffffffffffffffffffffffffffffffffff163373ffffffffffffffffffffffffffffffffffffffff1614905090565b606060018054610fec90613763565b80601f016020809104026020016040519081016040528092919081815260200182805461101890613763565b80156110655780601f1061103a57610100808354040283529160200191611065565b820191906000526020600020905b81548152906001019060200180831161104857829003601f168201915b5050505050905090565b600060036110c084848080601f016020809104026020016040519081016040528093929190818152602001838380828437600081840152601f19601f82011690508083019250505050505050611f5d565b1015801561111b5750600a61111884848080601f016020809104026020016040519081016040528093929190818152602001838380828437600081840152601f19601f82011690508083019250505050505050611f5d565b11155b905092915050565b61113561112e611ad1565b8383612112565b5050565b600e8060000154905081565b611156611150611ad1565b83611b92565b611195576040517f08c379a000000000000000000000000000000000000000000000000000000000815260040161118c90613973565b60405180910390fd5b6111a18484848461227e565b50505050565b6000600783836040516111bb9291906138e8565b908152602001604051809103902060009054906101000a900473ffffffffffffffffffffffffffffffffffffffff16905092915050565b600784846040516112049291906138e8565b908152602001604051809103902060009054906101000a900473ffffffffffffffffffffffffffffffffffffffff1673ffffffffffffffffffffffffffffffffffffffff163373ffffffffffffffffffffffffffffffffffffffff1614611297576040517f82b4290000000000000000000000000000000000000000000000000000000000815260040160405180910390fd5b8181600886866040516112ab9291906138e8565b908152602001604051809103902091826112c6929190613cfa565b5050505050565b60606112d882611a86565b60006006600084815260200190815260200160002080546112f890613763565b80601f016020809104026020016040519081016040528092919081815260200182805461132490613763565b80156113715780601f1061134657610100808354040283529160200191611371565b820191906000526020600020905b81548152906001019060200180831161135457829003601f168201915b5050505050905060006113826122da565b905060008151036113975781925050506113da565b6000825111156113cc5780826040516020016113b4929190613dfb565b604051602081830303815290604052925050506113da565b6113d5846122f1565b925050505b919050565b6000600560008473ffffffffffffffffffffffffffffffffffffffff1673ffffffffffffffffffffffffffffffffffffffff16815260200190815260200160002060008373ffffffffffffffffffffffffffffffffffffffff1673ffffffffffffffffffffffffffffffffffffffff16815260200190815260200160002060009054906101000a900460ff16905092915050565b600073ffffffffffffffffffffffffffffffffffffffff166007838360405161149d9291906138e8565b908152602001604051809103902060009054906101000a900473ffffffffffffffffffffffffffffffffffffffff1673ffffffffffffffffffffffffffffffffffffffff1614611519576040517f3a81d6fc00000000000000000000000000000000000000000000000000000000815260040160405180910390fd5b611523828261106f565b6115665781816040517f7f19f48d00000000000000000000000000000000000000000000000000000000815260040161155d929190613e4c565b60405180910390fd5b60006115728383611978565b9050803410156115b7576040517f08c379a00000000000000000000000000000000000000000000000000000000081526004016115ae90613ebc565b60405180910390fd5b60008383600b6040516020016115cf93929190613fab565b60405160208183030381529060405290506000600c82600d6040516020016115f993929190613fdc565b60405160208183030381529060405290506000611616600e612359565b9050600061166787878080601f016020809104026020016040519081016040528093929190818152602001838380828437600081840152601f19601f82011690508083019250505050505050611f5d565b9050600061167482612367565b905060006116ac8661168587612435565b8460405160200161169893929190614189565b604051602081830303815290604052612435565b90506000816040516020016116c19190614232565b60405160208183030381529060405290506117116040518060400160405280600e81526020017f46696e616c20746f6b656e55524900000000000000000000000000000000000081525082612598565b61171b3386612634565b6117258582612652565b3360078b8b6040516117389291906138e8565b908152602001604051809103902060006101000a81548173ffffffffffffffffffffffffffffffffffffffff021916908373ffffffffffffffffffffffffffffffffffffffff16021790555061178e600e6126bf565b50505050505050505050565b60606117da6040518060400160405280601f81526020017f47657474696e6720616c6c206e616d65732066726f6d20636f6e7472616374008152506126d5565b60006117e6600e612359565b67ffffffffffffffff8111156117ff576117fe6131ae565b5b60405190808252806020026020018201604052801561183257816020015b606081526020019060019003908161181d5790505b50905060005b611842600e612359565b8110156119705760096000828152602001908152602001600020805461186790613763565b80601f016020809104026020016040519081016040528092919081815260200182805461189390613763565b80156118e05780601f106118b5576101008083540402835291602001916118e0565b820191906000526020600020905b8154815290600101906020018083116118c357829003601f168201915b50505050508282815181106118f8576118f7614254565b5b602002602001018190525061195d6040518060400160405280601781526020017f4e616d6520666f7220746f6b656e202564206973202573000000000000000000815250828484815181106119505761194f614254565b5b602002602001015161276e565b8080611968906142b2565b915050611838565b508091505090565b6000806119c884848080601f016020809104026020016040519081016040528093929190818152602001838380828437600081840152601f19601f82011690508083019250505050505050611f5d565b9050600081116119d757600080fd5b600381036119f0576706f05b59d3b20000915050611a16565b60048103611a0957670429d069189e0000915050611a16565b67016345785d8a00009150505b92915050565b60007f01ffc9a7000000000000000000000000000000000000000000000000000000007bffffffffffffffffffffffffffffffffffffffffffffffffffffffff1916827bffffffffffffffffffffffffffffffffffffffffffffffffffffffff1916149050919050565b611a8f8161280d565b611ace576040517f08c379a0000000000000000000000000000000000000000000000000000000008152600401611ac590613a91565b60405180910390fd5b50565b600033905090565b816004600083815260200190815260200160002060006101000a81548173ffffffffffffffffffffffffffffffffffffffff021916908373ffffffffffffffffffffffffffffffffffffffff160217905550808273ffffffffffffffffffffffffffffffffffffffff16611b4c83610e22565b73ffffffffffffffffffffffffffffffffffffffff167f8c5be1e5ebec7d5bd14f71427d1e84f3dd0314c0f7b2291e5b200ac8c7c3b92560405160405180910390a45050565b600080611b9e83610e22565b90508073ffffffffffffffffffffffffffffffffffffffff168473ffffffffffffffffffffffffffffffffffffffff161480611be05750611bdf81856113df565b5b80611c1e57508373ffffffffffffffffffffffffffffffffffffffff16611c068461089f565b73ffffffffffffffffffffffffffffffffffffffff16145b91505092915050565b8273ffffffffffffffffffffffffffffffffffffffff16611c4782610e22565b73ffffffffffffffffffffffffffffffffffffffff1614611c9d576040517f08c379a0000000000000000000000000000000000000000000000000000000008152600401611c949061436c565b60405180910390fd5b600073ffffffffffffffffffffffffffffffffffffffff168273ffffffffffffffffffffffffffffffffffffffff1603611d0c576040517f08c379a0000000000000000000000000000000000000000000000000000000008152600401611d03906143fe565b60405180910390fd5b611d19838383600161284e565b8273ffffffffffffffffffffffffffffffffffffffff16611d3982610e22565b73ffffffffffffffffffffffffffffffffffffffff1614611d8f576040517f08c379a0000000000000000000000000000000000000000000000000000000008152600401611d869061436c565b60405180910390fd5b6004600082815260200190815260200160002060006101000a81549073ffffffffffffffffffffffffffffffffffffffff02191690556001600360008573ffffffffffffffffffffffffffffffffffffffff1673ffffffffffffffffffffffffffffffffffffffff168152602001908152602001600020600082825403925050819055506001600360008473ffffffffffffffffffffffffffffffffffffffff1673ffffffffffffffffffffffffffffffffffffffff16815260200190815260200160002060008282540192505081905550816002600083815260200190815260200160002060006101000a81548173ffffffffffffffffffffffffffffffffffffffff021916908373ffffffffffffffffffffffffffffffffffffffff160217905550808273ffffffffffffffffffffffffffffffffffffffff168473ffffffffffffffffffffffffffffffffffffffff167fddf252ad1be2c89b69c2b068fc378daa952ba7f163c4a11628f55a4df523b3ef60405160405180910390a4611f1b8383836001612854565b505050565b60006002600083815260200190815260200160002060009054906101000a900473ffffffffffffffffffffffffffffffffffffffff169050919050565b60008060008084519050600092505b80821015612107576000858381518110611f8957611f88614254565b5b602001015160f81c60f81b9050608060f81b817effffffffffffffffffffffffffffffffffffffffffffffffffffffffffffff19161015611fd857600183611fd1919061441e565b92506120f3565b60e060f81b817effffffffffffffffffffffffffffffffffffffffffffffffffffffffffffff1916101561201a57600283612013919061441e565b92506120f2565b60f060f81b817effffffffffffffffffffffffffffffffffffffffffffffffffffffffffffff1916101561205c57600383612055919061441e565b92506120f1565b60f8801b817effffffffffffffffffffffffffffffffffffffffffffffffffffffffffffff1916101561209d57600483612096919061441e565b92506120f0565b60fc60f81b817effffffffffffffffffffffffffffffffffffffffffffffffffffffffffffff191610156120df576005836120d8919061441e565b92506120ef565b6006836120ec919061441e565b92505b5b5b5b5b5082806120ff906142b2565b935050611f6c565b829350505050919050565b8173ffffffffffffffffffffffffffffffffffffffff168373ffffffffffffffffffffffffffffffffffffffff1603612180576040517f08c379a00000000000000000000000000000000000000000000000000000000081526004016121779061449e565b60405180910390fd5b80600560008573ffffffffffffffffffffffffffffffffffffffff1673ffffffffffffffffffffffffffffffffffffffff16815260200190815260200160002060008473ffffffffffffffffffffffffffffffffffffffff1673ffffffffffffffffffffffffffffffffffffffff16815260200190815260200160002060006101000a81548160ff0219169083151502179055508173ffffffffffffffffffffffffffffffffffffffff168373ffffffffffffffffffffffffffffffffffffffff167f17307eab39ab6107e8899845ad3d59bd9653f200f220920489ca2b5937696c31836040516122719190612eac565b60405180910390a3505050565b612289848484611c27565b6122958484848461285a565b6122d4576040517f08c379a00000000000000000000000000000000000000000000000000000000081526004016122cb90614530565b60405180910390fd5b50505050565b606060405180602001604052806000815250905090565b60606122fc82611a86565b60006123066122da565b905060008151116123265760405180602001604052806000815250612351565b8061233084612367565b604051602001612341929190613dfb565b6040516020818303038152906040525b915050919050565b600081600001549050919050565b606060006001612376846129e1565b01905060008167ffffffffffffffff811115612395576123946131ae565b5b6040519080825280601f01601f1916602001820160405280156123c75781602001600182028036833780820191505090505b509050600082602001820190505b60011561242a578080600190039150507f3031323334353637383961626364656600000000000000000000000000000000600a86061a8153600a858161241e5761241d614550565b5b049450600085036123d5575b819350505050919050565b6060600082510361245757604051806020016040528060008152509050612593565b600060405180606001604052806040815260200161498e6040913990506000600360028551612486919061441e565b612490919061457f565b600461249c91906145b0565b67ffffffffffffffff8111156124b5576124b46131ae565b5b6040519080825280601f01601f1916602001820160405280156124e75781602001600182028036833780820191505090505b509050600182016020820185865187015b80821015612553576003820191508151603f8160121c168501518453600184019350603f81600c1c168501518453600184019350603f8160061c168501518453600184019350603f81168501518453600184019350506124f8565b505060038651066001811461256f57600281146125825761258a565b603d6001830353603d600283035361258a565b603d60018303535b50505080925050505b919050565b61263082826040516024016125ae9291906145f2565b6040516020818303038152906040527f4b5c4277000000000000000000000000000000000000000000000000000000007bffffffffffffffffffffffffffffffffffffffffffffffffffffffff19166020820180517bffffffffffffffffffffffffffffffffffffffffffffffffffffffff8381831617835250505050612b34565b5050565b61264e828260405180602001604052806000815250612b5d565b5050565b61265b8261280d565b61269a576040517f08c379a00000000000000000000000000000000000000000000000000000000081526004016126919061469b565b60405180910390fd5b806006600084815260200190815260200160002090816126ba91906146bb565b505050565b6001816000016000828254019250508190555050565b61276b816040516024016126e99190612f57565b6040516020818303038152906040527f41304fac000000000000000000000000000000000000000000000000000000007bffffffffffffffffffffffffffffffffffffffffffffffffffffffff19166020820180517bffffffffffffffffffffffffffffffffffffffffffffffffffffffff8381831617835250505050612b34565b50565b6128088383836040516024016127869392919061478d565b6040516020818303038152906040527f5970e089000000000000000000000000000000000000000000000000000000007bffffffffffffffffffffffffffffffffffffffffffffffffffffffff19166020820180517bffffffffffffffffffffffffffffffffffffffffffffffffffffffff8381831617835250505050612b34565b505050565b60008073ffffffffffffffffffffffffffffffffffffffff1661282f83611f20565b73ffffffffffffffffffffffffffffffffffffffff1614159050919050565b50505050565b50505050565b600061287b8473ffffffffffffffffffffffffffffffffffffffff16612bb8565b156129d4578373ffffffffffffffffffffffffffffffffffffffff1663150b7a026128a4611ad1565b8786866040518563ffffffff1660e01b81526004016128c69493929190614827565b6020604051808303816000875af192505050801561290257506040513d601f19601f820116820180604052508101906128ff9190614888565b60015b612984573d8060008114612932576040519150601f19603f3d011682016040523d82523d6000602084013e612937565b606091505b50600081510361297c576040517f08c379a000000000000000000000000000000000000000000000000000000000815260040161297390614530565b60405180910390fd5b805181602001fd5b63150b7a0260e01b7bffffffffffffffffffffffffffffffffffffffffffffffffffffffff1916817bffffffffffffffffffffffffffffffffffffffffffffffffffffffff1916149150506129d9565b600190505b949350505050565b600080600090507a184f03e93ff9f4daa797ed6e38ed64bf6a1f0100000000000000008310612a3f577a184f03e93ff9f4daa797ed6e38ed64bf6a1f0100000000000000008381612a3557612a34614550565b5b0492506040810190505b6d04ee2d6d415b85acef81000000008310612a7c576d04ee2d6d415b85acef81000000008381612a7257612a71614550565b5b0492506020810190505b662386f26fc100008310612aab57662386f26fc100008381612aa157612aa0614550565b5b0492506010810190505b6305f5e1008310612ad4576305f5e1008381612aca57612ac9614550565b5b0492506008810190505b6127108310612af9576127108381612aef57612aee614550565b5b0492506004810190505b60648310612b1c5760648381612b1257612b11614550565b5b0492506002810190505b600a8310612b2b576001810190505b80915050919050565b60008151905060006a636f6e736f6c652e6c6f679050602083016000808483855afa5050505050565b612b678383612bdb565b612b74600084848461285a565b612bb3576040517f08c379a0000000000000000000000000000000000000000000000000000000008152600401612baa90614530565b60405180910390fd5b505050565b6000808273ffffffffffffffffffffffffffffffffffffffff163b119050919050565b600073ffffffffffffffffffffffffffffffffffffffff168273ffffffffffffffffffffffffffffffffffffffff1603612c4a576040517f08c379a0000000000000000000000000000000000000000000000000000000008152600401612c4190614901565b60405180910390fd5b612c538161280d565b15612c93576040517f08c379a0000000000000000000000000000000000000000000000000000000008152600401612c8a9061496d565b60405180910390fd5b612ca160008383600161284e565b612caa8161280d565b15612cea576040517f08c379a0000000000000000000000000000000000000000000000000000000008152600401612ce19061496d565b60405180910390fd5b6001600360008473ffffffffffffffffffffffffffffffffffffffff1673ffffffffffffffffffffffffffffffffffffffff16815260200190815260200160002060008282540192505081905550816002600083815260200190815260200160002060006101000a81548173ffffffffffffffffffffffffffffffffffffffff021916908373ffffffffffffffffffffffffffffffffffffffff160217905550808273ffffffffffffffffffffffffffffffffffffffff16600073ffffffffffffffffffffffffffffffffffffffff167fddf252ad1be2c89b69c2b068fc378daa952ba7f163c4a11628f55a4df523b3ef60405160405180910390a4612df4600083836001612854565b5050565b6000604051905090565b600080fd5b600080fd5b60007fffffffff0000000000000000000000000000000000000000000000000000000082169050919050565b612e4181612e0c565b8114612e4c57600080fd5b50565b600081359050612e5e81612e38565b92915050565b600060208284031215612e7a57612e79612e02565b5b6000612e8884828501612e4f565b91505092915050565b60008115159050919050565b612ea681612e91565b82525050565b6000602082019050612ec16000830184612e9d565b92915050565b600081519050919050565b600082825260208201905092915050565b60005b83811015612f01578082015181840152602081019050612ee6565b60008484015250505050565b6000601f19601f8301169050919050565b6000612f2982612ec7565b612f338185612ed2565b9350612f43818560208601612ee3565b612f4c81612f0d565b840191505092915050565b60006020820190508181036000830152612f718184612f1e565b905092915050565b6000819050919050565b612f8c81612f79565b8114612f9757600080fd5b50565b600081359050612fa981612f83565b92915050565b600060208284031215612fc557612fc4612e02565b5b6000612fd384828501612f9a565b91505092915050565b600073ffffffffffffffffffffffffffffffffffffffff82169050919050565b600061300782612fdc565b9050919050565b61301781612ffc565b82525050565b6000602082019050613032600083018461300e565b92915050565b61304181612ffc565b811461304c57600080fd5b50565b60008135905061305e81613038565b92915050565b6000806040838503121561307b5761307a612e02565b5b60006130898582860161304f565b925050602061309a85828601612f9a565b9150509250929050565b600080fd5b600080fd5b600080fd5b60008083601f8401126130c9576130c86130a4565b5b8235905067ffffffffffffffff8111156130e6576130e56130a9565b5b602083019150836001820283011115613102576131016130ae565b5b9250929050565b600080602083850312156131205761311f612e02565b5b600083013567ffffffffffffffff81111561313e5761313d612e07565b5b61314a858286016130b3565b92509250509250929050565b60008060006060848603121561316f5761316e612e02565b5b600061317d8682870161304f565b935050602061318e8682870161304f565b925050604061319f86828701612f9a565b9150509250925092565b600080fd5b7f4e487b7100000000000000000000000000000000000000000000000000000000600052604160045260246000fd5b6131e682612f0d565b810181811067ffffffffffffffff82111715613205576132046131ae565b5b80604052505050565b6000613218612df8565b905061322482826131dd565b919050565b600067ffffffffffffffff821115613244576132436131ae565b5b61324d82612f0d565b9050602081019050919050565b82818337600083830152505050565b600061327c61327784613229565b61320e565b905082815260208101848484011115613298576132976131a9565b5b6132a384828561325a565b509392505050565b600082601f8301126132c0576132bf6130a4565b5b81356132d0848260208601613269565b91505092915050565b6000602082840312156132ef576132ee612e02565b5b600082013567ffffffffffffffff81111561330d5761330c612e07565b5b613319848285016132ab565b91505092915050565b60006020828403121561333857613337612e02565b5b60006133468482850161304f565b91505092915050565b61335881612f79565b82525050565b6000602082019050613373600083018461334f565b92915050565b600061338482612fdc565b9050919050565b61339481613379565b82525050565b60006020820190506133af600083018461338b565b92915050565b6133be81612e91565b81146133c957600080fd5b50565b6000813590506133db816133b5565b92915050565b600080604083850312156133f8576133f7612e02565b5b60006134068582860161304f565b9250506020613417858286016133cc565b9150509250929050565b600067ffffffffffffffff82111561343c5761343b6131ae565b5b61344582612f0d565b9050602081019050919050565b600061346561346084613421565b61320e565b905082815260208101848484011115613481576134806131a9565b5b61348c84828561325a565b509392505050565b600082601f8301126134a9576134a86130a4565b5b81356134b9848260208601613452565b91505092915050565b600080600080608085870312156134dc576134db612e02565b5b60006134ea8782880161304f565b94505060206134fb8782880161304f565b935050604061350c87828801612f9a565b925050606085013567ffffffffffffffff81111561352d5761352c612e07565b5b61353987828801613494565b91505092959194509250565b6000806000806040858703121561355f5761355e612e02565b5b600085013567ffffffffffffffff81111561357d5761357c612e07565b5b613589878288016130b3565b9450945050602085013567ffffffffffffffff8111156135ac576135ab612e07565b5b6135b8878288016130b3565b925092505092959194509250565b600080604083850312156135dd576135dc612e02565b5b60006135eb8582860161304f565b92505060206135fc8582860161304f565b9150509250929050565b600081519050919050565b600082825260208201905092915050565b6000819050602082019050919050565b600082825260208201905092915050565b600061364e82612ec7565b6136588185613632565b9350613668818560208601612ee3565b61367181612f0d565b840191505092915050565b60006136888383613643565b905092915050565b6000602082019050919050565b60006136a882613606565b6136b28185613611565b9350836020820285016136c485613622565b8060005b8581101561370057848403895281516136e1858261367c565b94506136ec83613690565b925060208a019950506001810190506136c8565b50829750879550505050505092915050565b6000602082019050818103600083015261372c818461369d565b905092915050565b7f4e487b7100000000000000000000000000000000000000000000000000000000600052602260045260246000fd5b6000600282049050600182168061377b57607f821691505b60208210810361378e5761378d613734565b5b50919050565b7f4552433732313a20617070726f76616c20746f2063757272656e74206f776e6560008201527f7200000000000000000000000000000000000000000000000000000000000000602082015250565b60006137f0602183612ed2565b91506137fb82613794565b604082019050919050565b6000602082019050818103600083015261381f816137e3565b9050919050565b7f4552433732313a20617070726f76652063616c6c6572206973206e6f7420746f60008201527f6b656e206f776e6572206f7220617070726f76656420666f7220616c6c000000602082015250565b6000613882603d83612ed2565b915061388d82613826565b604082019050919050565b600060208201905081810360008301526138b181613875565b9050919050565b600081905092915050565b60006138cf83856138b8565b93506138dc83858461325a565b82840190509392505050565b60006138f58284866138c3565b91508190509392505050565b7f4552433732313a2063616c6c6572206973206e6f7420746f6b656e206f776e6560008201527f72206f7220617070726f76656400000000000000000000000000000000000000602082015250565b600061395d602d83612ed2565b915061396882613901565b604082019050919050565b6000602082019050818103600083015261398c81613950565b9050919050565b600081905092915050565b50565b60006139ae600083613993565b91506139b98261399e565b600082019050919050565b60006139cf826139a1565b9150819050919050565b7f4661696c656420746f207769746864726177204d617469630000000000000000600082015250565b6000613a0f601883612ed2565b9150613a1a826139d9565b602082019050919050565b60006020820190508181036000830152613a3e81613a02565b9050919050565b7f4552433732313a20696e76616c696420746f6b656e2049440000000000000000600082015250565b6000613a7b601883612ed2565b9150613a8682613a45565b602082019050919050565b60006020820190508181036000830152613aaa81613a6e565b9050919050565b7f4552433732313a2061646472657373207a65726f206973206e6f74206120766160008201527f6c6964206f776e65720000000000000000000000000000000000000000000000602082015250565b6000613b0d602983612ed2565b9150613b1882613ab1565b604082019050919050565b60006020820190508181036000830152613b3c81613b00565b9050919050565b600082905092915050565b60008190508160005260206000209050919050565b60006020601f8301049050919050565b600082821b905092915050565b600060088302613bb07fffffffffffffffffffffffffffffffffffffffffffffffffffffffffffffffff82613b73565b613bba8683613b73565b95508019841693508086168417925050509392505050565b6000819050919050565b6000613bf7613bf2613bed84612f79565b613bd2565b612f79565b9050919050565b6000819050919050565b613c1183613bdc565b613c25613c1d82613bfe565b848454613b80565b825550505050565b600090565b613c3a613c2d565b613c45818484613c08565b505050565b5b81811015613c6957613c5e600082613c32565b600181019050613c4b565b5050565b601f821115613cae57613c7f81613b4e565b613c8884613b63565b81016020851015613c97578190505b613cab613ca385613b63565b830182613c4a565b50505b505050565b600082821c905092915050565b6000613cd160001984600802613cb3565b1980831691505092915050565b6000613cea8383613cc0565b9150826002028217905092915050565b613d048383613b43565b67ffffffffffffffff811115613d1d57613d1c6131ae565b5b613d278254613763565b613d32828285613c6d565b6000601f831160018114613d615760008415613d4f578287013590505b613d598582613cde565b865550613dc1565b601f198416613d6f86613b4e565b60005b82811015613d9757848901358255600182019150602085019450602081019050613d72565b86831015613db45784890135613db0601f891682613cc0565b8355505b6001600288020188555050505b50505050505050565b6000613dd582612ec7565b613ddf81856138b8565b9350613def818560208601612ee3565b80840191505092915050565b6000613e078285613dca565b9150613e138284613dca565b91508190509392505050565b6000613e2b8385612ed2565b9350613e3883858461325a565b613e4183612f0d565b840190509392505050565b60006020820190508181036000830152613e67818486613e1f565b90509392505050565b7f4e6f7420656e6f756768204d6174696320706169640000000000000000000000600082015250565b6000613ea6601583612ed2565b9150613eb182613e70565b602082019050919050565b60006020820190508181036000830152613ed581613e99565b9050919050565b7f2e00000000000000000000000000000000000000000000000000000000000000600082015250565b6000613f126001836138b8565b9150613f1d82613edc565b600182019050919050565b60008154613f3581613763565b613f3f81866138b8565b94506001821660008114613f5a5760018114613f6f57613fa2565b60ff1983168652811515820286019350613fa2565b613f7885613b4e565b60005b83811015613f9a57815481890152600182019150602081019050613f7b565b838801955050505b50505092915050565b6000613fb88285876138c3565b9150613fc382613f05565b9150613fcf8284613f28565b9150819050949350505050565b6000613fe88286613f28565b9150613ff48285613dca565b91506140008284613f28565b9150819050949350505050565b7f7b226e616d65223a202200000000000000000000000000000000000000000000600082015250565b6000614043600a836138b8565b915061404e8261400d565b600a82019050919050565b7f222c20226465736372697074696f6e223a20224120646f6d61696e206f6e207460008201527f68652046756e6b206e616d652073657276696365222c2022696d616765223a2060208201527f22646174613a696d6167652f7376672b786d6c3b6261736536342c0000000000604082015250565b60006140db605b836138b8565b91506140e682614059565b605b82019050919050565b7f222c20226c656e677468223a2022000000000000000000000000000000000000600082015250565b6000614127600e836138b8565b9150614132826140f1565b600e82019050919050565b7f227d000000000000000000000000000000000000000000000000000000000000600082015250565b60006141736002836138b8565b915061417e8261413d565b600282019050919050565b600061419482614036565b91506141a08286613dca565b91506141ab826140ce565b91506141b78285613dca565b91506141c28261411a565b91506141ce8284613dca565b91506141d982614166565b9150819050949350505050565b7f646174613a6170706c69636174696f6e2f6a736f6e3b6261736536342c000000600082015250565b600061421c601d836138b8565b9150614227826141e6565b601d82019050919050565b600061423d8261420f565b91506142498284613dca565b915081905092915050565b7f4e487b7100000000000000000000000000000000000000000000000000000000600052603260045260246000fd5b7f4e487b7100000000000000000000000000000000000000000000000000000000600052601160045260246000fd5b60006142bd82612f79565b91507fffffffffffffffffffffffffffffffffffffffffffffffffffffffffffffffff82036142ef576142ee614283565b5b600182019050919050565b7f4552433732313a207472616e736665722066726f6d20696e636f72726563742060008201527f6f776e6572000000000000000000000000000000000000000000000000000000602082015250565b6000614356602583612ed2565b9150614361826142fa565b604082019050919050565b6000602082019050818103600083015261438581614349565b9050919050565b7f4552433732313a207472616e7366657220746f20746865207a65726f2061646460008201527f7265737300000000000000000000000000000000000000000000000000000000602082015250565b60006143e8602483612ed2565b91506143f38261438c565b604082019050919050565b60006020820190508181036000830152614417816143db565b9050919050565b600061442982612f79565b915061443483612f79565b925082820190508082111561444c5761444b614283565b5b92915050565b7f4552433732313a20617070726f766520746f2063616c6c657200000000000000600082015250565b6000614488601983612ed2565b915061449382614452565b602082019050919050565b600060208201905081810360008301526144b78161447b565b9050919050565b7f4552433732313a207472616e7366657220746f206e6f6e20455243373231526560008201527f63656976657220696d706c656d656e7465720000000000000000000000000000602082015250565b600061451a603283612ed2565b9150614525826144be565b604082019050919050565b600060208201905081810360008301526145498161450d565b9050919050565b7f4e487b7100000000000000000000000000000000000000000000000000000000600052601260045260246000fd5b600061458a82612f79565b915061459583612f79565b9250826145a5576145a4614550565b5b828204905092915050565b60006145bb82612f79565b91506145c683612f79565b92508282026145d481612f79565b915082820484148315176145eb576145ea614283565b5b5092915050565b6000604082019050818103600083015261460c8185612f1e565b905081810360208301526146208184612f1e565b90509392505050565b7f45524337323155524953746f726167653a2055524920736574206f66206e6f6e60008201527f6578697374656e7420746f6b656e000000000000000000000000000000000000602082015250565b6000614685602e83612ed2565b915061469082614629565b604082019050919050565b600060208201905081810360008301526146b481614678565b9050919050565b6146c482612ec7565b67ffffffffffffffff8111156146dd576146dc6131ae565b5b6146e78254613763565b6146f2828285613c6d565b600060209050601f8311600181146147255760008415614713578287015190505b61471d8582613cde565b865550614785565b601f19841661473386613b4e565b60005b8281101561475b57848901518255600182019150602085019450602081019050614736565b868310156147785784890151614774601f891682613cc0565b8355505b6001600288020188555050505b505050505050565b600060608201905081810360008301526147a78186612f1e565b90506147b6602083018561334f565b81810360408301526147c88184612f1e565b9050949350505050565b600081519050919050565b600082825260208201905092915050565b60006147f9826147d2565b61480381856147dd565b9350614813818560208601612ee3565b61481c81612f0d565b840191505092915050565b600060808201905061483c600083018761300e565b614849602083018661300e565b614856604083018561334f565b818103606083015261486881846147ee565b905095945050505050565b60008151905061488281612e38565b92915050565b60006020828403121561489e5761489d612e02565b5b60006148ac84828501614873565b91505092915050565b7f4552433732313a206d696e7420746f20746865207a65726f2061646472657373600082015250565b60006148eb602083612ed2565b91506148f6826148b5565b602082019050919050565b6000602082019050818103600083015261491a816148de565b9050919050565b7f4552433732313a20746f6b656e20616c7265616479206d696e74656400000000600082015250565b6000614957601c83612ed2565b915061496282614921565b602082019050919050565b600060208201905081810360008301526149868161494a565b905091905056fe4142434445464748494a4b4c4d4e4f505152535455565758595a6162636465666768696a6b6c6d6e6f707172737475767778797a303132333435363738392b2fa26469706673582212208662c9cde8048cd880c0c160b8a18bd73025b0d08b8cd80db04649f01953720d64736f6c634300081200333c73766720786d6c6e733d22687474703a2f2f7777772e77332e6f72672f323030302f737667222077696474683d2232373022206865696768743d22323730222066696c6c3d226e6f6e65223e3c706174682066696c6c3d2275726c282342292220643d224d302030683237307632373048307a222f3e3c646566733e3c66696c7465722069643d22412220636f6c6f722d696e746572706f6c6174696f6e2d66696c746572733d2273524742222066696c746572556e6974733d227573657253706163654f6e55736522206865696768743d22323730222077696474683d22323730223e3c666544726f70536861646f772064783d2230222064793d22312220737464446576696174696f6e3d22322220666c6f6f642d6f7061636974793d222e323235222077696474683d223230302522206865696768743d2232303025222f3e3c2f66696c7465723e3c2f646566733e3c7061746820643d224d37322e3836332034322e393439632d2e3636382d2e3338372d312e3432362d2e35392d322e3139372d2e3539732d312e3532392e3230342d322e3139372e35396c2d31302e30383120362e3033322d362e383520332e3933342d31302e30383120362e303332632d2e3636382e3338372d312e3432362e35392d322e3139372e3539732d312e3532392d2e3230342d322e3139372d2e35396c2d382e3031332d342e37323161342e353220342e35322030203020312d312e3538392d312e363136632d2e3338342d2e3636352d2e3539342d312e3431382d2e3630382d322e313837762d392e3331632d2e3031332d2e3737352e3138352d312e3533382e3537322d322e32303861342e323520342e323520302030203120312e3632352d312e3539356c372e3838342d342e3539632e3636382d2e33383720312e3432362d2e353920322e3139372d2e353973312e3532392e32303420322e3139372e35396c372e38383420342e353961342e353220342e353220302030203120312e35383920312e363136632e3338342e3636352e35393420312e3431382e36303820322e31383776362e3033326c362e38352d342e303635762d362e303332632e3031332d2e3737352d2e3138352d312e3533382d2e3537322d322e32303861342e323520342e32352030203020302d312e3632352d312e3539354c34312e3435362032342e3539632d2e3636382d2e3338372d312e3432362d2e35392d322e3139372d2e3539732d312e3532392e3230342d322e3139372e35396c2d31342e38363420382e36353561342e323520342e32352030203020302d312e36323520312e353935632d2e3338372e36372d2e35383520312e3433342d2e35373220322e3230387631372e343431632d2e3031332e3737352e31383520312e3533382e35373220322e32303861342e323520342e323520302030203020312e36323520312e3539356c31342e38363420382e363535632e3636382e33383720312e3432362e353920322e3139372e353973312e3532392d2e32303420322e3139372d2e35396c31302e3038312d352e39303120362e38352d342e3036352031302e3038312d352e393031632e3636382d2e33383720312e3432362d2e353920322e3139372d2e353973312e3532392e32303420322e3139372e35396c372e38383420342e353961342e353220342e353220302030203120312e35383920312e363136632e3338342e3636352e35393420312e3431382e36303820322e31383776392e333131632e3031332e3737352d2e31383520312e3533382d2e35373220322e32303861342e323520342e32352030203020312d312e36323520312e3539356c2d372e38383420342e373231632d2e3636382e3338372d312e3432362e35392d322e3139372e3539732d312e3532392d2e3230342d322e3139372d2e35396c2d372e3838342d342e353961342e353220342e35322030203020312d312e3538392d312e363136632d2e3338352d2e3636352d2e3539342d312e3431382d2e3630382d322e313837762d362e3033326c2d362e383520342e30363576362e303332632d2e3031332e3737352e31383520312e3533382e35373220322e32303861342e323520342e323520302030203020312e36323520312e3539356c31342e38363420382e363535632e3636382e33383720312e3432362e353920322e3139372e353973312e3532392d2e32303420322e3139372d2e35396c31342e3836342d382e363535632e3635372d2e33393420312e3230342d2e393520312e3538392d312e363136732e3539342d312e3431382e3630392d322e3138375635352e353338632e3031332d2e3737352d2e3138352d312e3533382d2e3537322d322e32303861342e323520342e32352030203020302d312e3632352d312e3539356c2d31342e3939332d382e3738367a222066696c6c3d2223666666222f3e3c646566733e3c6c696e6561724772616469656e742069643d2242222078313d2230222079313d2230222078323d22323730222079323d2232373022206772616469656e74556e6974733d227573657253706163654f6e557365223e3c73746f702073746f702d636f6c6f723d2223636235656565222f3e3c73746f70206f66667365743d2231222073746f702d636f6c6f723d2223306364376534222073746f702d6f7061636974793d222e3939222f3e3c2f6c696e6561724772616469656e743e3c2f646566733e3c7465787420783d2233322e352220793d223233312220666f6e742d73697a653d223237222066696c6c3d2223666666222066696c7465723d2275726c282341292220666f6e742d66616d696c793d22506c7573204a616b617274612053616e732c44656a6156752053616e732c4e6f746f20436f6c6f7220456d6f6a692c4170706c6520436f6c6f7220456d6f6a692c73616e732d73657269662220666f6e742d7765696768743d22626f6c64223e",
  "linkReferences": {},
  "deployedLinkReferences": {}
}